:100000000C9464000C948C000C948C000C948C0068
:100010000C948C000C948C000C948C000C948C0030
:100020000C948C000C948C000C948C000C948C0020
:100030000C948C000C948C000C948C000C948C0010
:100040000C9413090C948C000C94F20A0C948C0000
:100050000C948C000C948C000C948C000C948C00F0
:100060000C948C000C948C000000000024002700ED
:100070002A0000000000250028002B0000000000DE
:1000800023002600290004040404040404040202DA
:100090000202020203030303030301020408102007
:1000A0004080010204081020010204081020000012
:1000B0000007000201000003040600000000000029
:1000C0000000C700A105770C11241FBECFEFD8E0B8
:1000D000DEBFCDBF11E0A0E0B1E0EAECFCE102C080
:1000E00005900D92A631B107D9F711E0A6E1B1E074
:1000F00001C01D92A43EB107E1F710E0C8ECD0E0CA
:1001000004C02297FE010E945F0EC23CD107C9F7CE
:100110000E940C090C94630E0C940000FC01E08119
:10012000E23069F0E33018F4E13079F405C0E330EF
:1001300049F0E43051F408C06093B300089560932F
:10014000B400089567BD089568BD08950F931F9387
:100150008C01FC0180819181689F9001699F300D25
:10016000789F300D112440E050E060E077E883E9AB
:1001700093E00E942E0EF801238334834583568337
:1001800017821086118612861F910F910895089587
:10019000E0EBF0E090819368908387708093B100EA
:1001A0001092B3008BE061E00E94360A0895E0EB04
:1001B000F0E090819362908387708093B1001092F9
:1001C000B40083E061E00E94360A0895CF93DF9384
:1001D0008CE060E00E94560A88E060E00E94560AC7
:1001E000C7E0D0E084E060E00E94560A80911701E9
:1001F00090E00C2E02C0959587950A94E2F780FF57
:1002000003C088E061E002C088E060E00E94560A16
:1002100084E061E00E94560A21978FEFCF3FD80714
:1002200009F78CE061E00E94560ADF91CF910895B2
:100230008F929F92AF92BF92CF92DF92EF92FF92F6
:100240000F931F93CF93DF93062FE42EFC01928030
:10025000F1E09F1669F4F090B3001091B40064E0EF
:10026000A62E52E0B52E48E0D42E30E1C32E0FC0AA
:1002700082E0981611F000E062C1F7B418B520E2F0
:10028000A22EBB24B39490E8D92E80E4C82E80908F
:100290001701E82DF0E04A2D50E0CB2DD0E09E0173
:1002A000242B352BC9018E239F238217930711F42A
:1002B00020E138C0AD2DB0E09D012C2B3D2BC901B4
:1002C0008E239F238217930711F420E32BC06C2DFC
:1002D00070E09B012A2B3B2BC9018E239F238217A1
:1002E000930711F420E51EC09B01242B352BC90177
:1002F0008E239F238217930711F420E713C04E2308
:100300005F23452B11F020E00DC0CE23DF23CD2B42
:1003100011F020E207C0AE23BF23AB2B11F420E67F
:1003200001C020E4E1E0EE1631F4822F82958F7057
:1003300080FF13C01EC0F2E0EF16C1F4822F829539
:100340008F7080FD0AC015C080599F4F282F2F77CE
:1003500000E01FEFFF24FA94B3C0822F90E0013039
:1003600011F48096F3CF805A9F4FF0CF83E0E816C8
:1003700031F4822F90E0013039F74096E7CFE8E082
:10038000EE1611F000E09CC0013009F04CC02031A5
:1003900010F4205F2F77FFEFFF1629F4822F82954C
:1003A0008370833039F01F3F39F4822F8295837038
:1003B000813011F4205E2F77203111F02035C9F4FF
:1003C0001F3F11F480E103C0812F82958F708F5FF2
:1003D00061E10E94ED0D092F903111F41FEF03C070
:1003E000192F1295107FF12EF094003109F068C09A
:1003F00018C01F3F11F480E103C0812F82958F70D8
:10040000805F61E10E94ED0D092F903111F41FEF23
:1004100003C0192F1295107FF12EF094002309F0DC
:100420004FC0205E4CC08FEFF81629F4822F8295C2
:100430008370813039F01F3F39F4822F82958370A9
:10044000833011F4205A2F77822F82958F7080FD90
:1004500002C020592F77203111F02035C1F41F3F01
:1004600011F480E103C0812F82958F70805F61E17C
:100470000E94ED0D092F903111F41FEF03C0192FC9
:100480001295107FF12EF0940023D1F417C01F3F76
:1004900011F480E103C0812F82958F708F5F61E13D
:1004A0000E94ED0D092F903111F41FEF03C0192F99
:1004B0001295107FF12EF094003111F4205A2F770D
:1004C000E1E09E1629F4F092B3001093B40005C049
:1004D000F2E09F1611F4F7BC18BD4B2D4A293C2DB4
:1004E0003D29932F942B9095982190931701822F5B
:1004F00082958F708330B1F0843028F4813071F0B0
:10050000823070F409C0853081F0853060F086302B
:1005100079F0873081F40BC09A290BC0942B09C065
:100520009B2907C0DB289D2904C0932B02C0CA2841
:100530009C299093170186E191E00E94E600802FAC
:10054000DF91CF911F910F91FF90EF90DF90CF90AF
:10055000BF90AF909F908F9008955F926F927F921F
:100560008F929F92AF92BF92CF92DF92EF92FF92C3
:100570000F931F93CF93DF93EC016B01542EA22EA8
:10058000EB80FC800D811E8123E0A216D1F416952C
:100590000795F794E794C801B70128EE33E040E0EF
:1005A00050E00E940C0E39014A01C801B70128EE43
:1005B00033E040E050E00E940C0E7B018C01BB2434
:1005C00040C088E0A81639F7E4E016950795F7943F
:1005D000E794EA95D1F774E0CC0CDD1C7A95E1F74D
:1005E000DACFCE01652D4A2D0E941801B82EB30135
:1005F000C4010E945B098F819885A985BA858E0DFB
:100600009F1DA01FB11F8F839887A987BA87885E17
:100610009340A040B04090F061E070E080E090E056
:100620000E945B098F819885A985BA85885E934071
:10063000A040B0408F839887A987BA870894C108E3
:10064000D108C114D10469F688E0A81699F52DC027
:10065000CE01652D48E00E941801B82EB301C401F7
:100660000E945B098F819885A985BA858E0D9F1D93
:10067000A01FB11F8F839887A987BA87885E934090
:10068000A040B04090F061E070E080E090E00E9417
:100690005B098F819885A985BA85885E9340A040C3
:1006A000B0408F839887A987BA87BB2019F080E173
:1006B000B81671F6DF91CF911F910F91FF90EF90D7
:1006C000DF90CF90BF90AF909F908F907F906F9072
:1006D0005F900895FC018281813051F4809117016F
:1006E000817E8093170186E191E00E94E6000895E3
:1006F000823049F4809117018E718093170186E151
:1007000091E00E94E6000895FC01E081E23061F092
:10071000E33020F4E13009F05DC009C0E33051F06E
:10072000E43009F057C009C041E054E008C042E09D
:1007300053E005C045E057E002C040E056E06230BB
:10074000C1F0643079F1613009F044C081E090E09B
:100750009C0102C0220F331F5A95E2F7209502C078
:10076000880F991F4A95E2F740911701482B2423DF
:1007700012C081E090E09C0102C0220F331F4A9515
:10078000E2F7209540911701242302C0880F991F9A
:100790005A95E2F7282B2093170186E191E00E94F9
:1007A000E600089581E090E09C0102C0220F331F13
:1007B0004A95E2F702C0880F991F5A95E2F7822BFB
:1007C00080952091170128232093170186E191E05D
:1007D0000E94E60008950F931F938C018CE061E066
:1007E0000E94360A87E061E00E94360A88E061E0F4
:1007F0000E94360A84E061E00E94360A10921701D6
:10080000C8010E94E60087E060E00E94560A1F913E
:100810000F9108950F931F93FC01162F042F6083EF
:10082000418386E191E00E94EB031230C1F0133066
:1008300020F4113009F040C005C01330E9F0143045
:10084000D9F529C080911701837F8093170186E134
:1008500091E00E94E600802F0E94C8002DC0809188
:1008600017018D7E8093170186E191E00E94E600DA
:10087000802F0E94D70020C0809117018F75809330
:10088000170186E191E00E94E60084B5836884BD8B
:1008900017BC86E00EC0809117018E7B80931701F4
:1008A00086E191E00E94E60084B5836284BD18BCB5
:1008B00085E061E00E94360A1F910F910895EF9242
:1008C000FF920F93CF93DF93EC017B01042F86E11E
:1008D00091E00E94EB03F982E8820A83013029F556
:1008E00080911701817E8093170186E191E00E943B
:1008F000E6008BE061E00E94360A83E061E00E943E
:10090000360A8BE061E00E94560A83E061E00E94B3
:10091000560A81E00E94C80081E00E94D7008FEF54
:100920008093B3008093B4002EC0023061F58091B3
:1009300017018E718093170186E191E00E94E60015
:1009400085E061E00E94360A86E061E00E94360A96
:1009500085E061E00E94560A86E061E00E94560A46
:1009600084B5836884BD17BC86E061E00E94360AC6
:1009700084B5836284BD18BC85E061E00E94360ABC
:100980008FEF87BD88BDDF91CF910F91FF90EF90E2
:100990000895FC0110828FEF818382E2828386E9D1
:1009A00083830895EF92FF920F931F93CF93DF936A
:1009B000EC019B0177FF03C020E030E005C0653B00
:1009C000710514F024EB30E02983EA806B8170E03C
:1009D0006E197109882777FD8095982F982F872F9A
:1009E000762F662730E040E050E00E94CE0D24EBE9
:1009F00030E040E050E00E942E0EFF2400E010E0C6
:100A0000102F0F2DFE2CEE24E20EF31E041F151FD7
:100A1000C801B70128E030E040E050E00E942E0E0F
:100A20008881893029F4309389002093880004C09C
:100A300030938B0020938A00DF91CF911F910F910B
:100A4000FF90EF900895FC0181810895FC01E08101
:100A5000E93031F480911801882351F081E0089544
:100A6000EA3011F080E0089580911901811181E050
:100A70000895FC01E081E93031F410921801809171
:100A800080008F7305C010921901809180008F7CC7
:100A9000809380008E2F60E00E94360A0895CF93E5
:100AA000DF93EC01CB010997029710F080E046C07C
:100AB00068838FEF8983862F60E00E94560A8881C1
:100AC00061E00E94360A80911801882311F5809117
:100AD00019018823F1F42FB7F89482E08093800005
:100AE0008AE18093810088EB9BE09093890080935A
:100AF000880090938B0080938A0080E49CE9909317
:100B000087008093860080916F00887F80936F00BC
:100B10002FBF8881893041F481E080931801809152
:100B200080008F73806807C081E0809319018091F5
:100B300080008F7C80628093800081E0DF91CF9184
:100B400008958AE191E00E94C9048EE191E00E943B
:100B5000C90482E291E068EC70E041E00E945F0429
:100B60008DE291E068EC70E042E00E945F0488E36F
:100B700091E061E041E00E940A048AE391E062E0D2
:100B800041E00E940A048CE391E063E041E00E94AE
:100B90000A048EE391E064E041E00E940A040895B3
:100BA000CF93DF9381ED91E00E94280C882309F414
:100BB00027C381ED91E00E943C0CEC01809108017B
:100BC000909109018634910509F465C18734910536
:100BD000D4F58531910509F4C8C086319105C4F476
:100BE0008130910509F491C0823091054CF42FEFCA
:100BF0008F3F920709F468C0892B09F477C000C3BE
:100C00008A30910509F492C0449709F0F9C29EC058
:100C10008932910509F4D8C08A32910544F48E31A5
:100C2000910509F4AEC0889709F0EAC2BEC08C33C2
:100C3000910509F4F2C08D33910509F4FDC0C29706
:100C400009F0DEC2C7C0853B910509F4C1C1863BEE
:100C50009105ECF48A35910509F46AC18B3591054B
:100C60004CF48035910509F43CC18135910509F0BA
:100C7000C7C246C18B3A910509F46FC1843B910507
:100C800009F499C18A3A910509F0BAC259C1883C60
:100C9000910509F435C2893C91054CF48E3B9105D0
:100CA00009F409C28F3B910509F0AAC211C28A3C1E
:100CB000910509F45FC28A3C91050CF42EC28B3C6D
:100CC000910509F09DC278C2CE01C0978A9708F0BD
:100CD00097C2CE0133E0880F991F3A95E1F7CC0F08
:100CE000DD1F8C0F9D1F805E914086C2CE01835612
:100CF0009040429708F07EC2C156D040D093070181
:100D0000C093060181E090E077C2CE01C0970297C0
:100D100008F070C2E09721F48091060160E003C002
:100D20008091060161E00E94360A64C2CE018356BA
:100D30009040429708F05EC2CE0181569040909359
:100D40000701809306010E94A30A29C0CE018356A1
:100D50009040429708F04EC2C156D040D093070150
:100D6000C093060185E190E047C2BE016053704028
:100D70006230710508F03EC2809106010E94560A59
:100D800039C2BE01615670406630710508F032C24A
:100D90007093070160930601862F0E94BF09BC0172
:100DA00081ED91E00E94BE0D25C2CE018356904098
:100DB000429708F01FC2C156D040D0930701C0939C
:100DC000060189E290E018C280910601BE010E94EE
:100DD000DD0910C2CE0181569040029708F00AC288
:100DE000CE018056904090930501809304010197B5
:100DF00019F060E070E006C08AE191E00E942605EB
:100E0000682F70E08091040190910501029741F6EE
:100E10008EE191E00E94260561C0CE01815690408E
:100E2000029708F0E7C1C056D040D0930501C093A7
:100E300004018DE390E0E0C1CE01C09782309105BE
:100E400008F0D8C1EC01809104019091050101974F
:100E500069F4209739F08AE191E06AE070E00E943D
:100E60004F0504C08AE191E00E9439058091040198
:100E700090910501029709F0BDC1CD2B39F08EE1AB
:100E800091E069E070E00E944F05B4C18EE191E00D
:100E90000E943905AFC1CE0181569040029708F0FB
:100EA000A9C1CE0180569040909305018093040122
:100EB000019719F060E070E006C08AE191E00E94BD
:100EC0002305682F70E0809104019091050102973D
:100ED00009F066CF8EE191E00E942305682F70E053
:100EE0005FCFCE0181569040029708F083C1C05673
:100EF000D040D0930501C093040181E590E07CC10E
:100F00008091040190910501019729F48AE191E013
:100F1000BE010E94D20480910401909105010297C4
:100F200009F068C18EE191E0BE010E94D20462C165
:100F3000E99709F05FC181ED91E062E070E032CFA6
:100F4000CE01C197049708F055C1E097D0930301F3
:100F5000C09302018BEA90E04FC180910201909111
:100F60000301019729F488E391E06C2F0E948E0021
:100F70008091020190910301029729F48AE391E0A4
:100F80006C2F0E948E0080910201909103010397C3
:100F900029F48CE391E06C2F0E948E008091020175
:100FA00090910301049709F025C18EE391E06C2F25
:100FB0000E948E001FC1CE01C197049708F01AC18C
:100FC000E097D0930301C093020185EB90E014C138
:100FD00080910201909103010197B1F4C636D105C9
:100FE00021F488E391E061E00DC0C236D10521F41F
:100FF00088E391E062E006C0C237D10529F488E3B6
:1010000091E064E00E9484038091020190910301C9
:101010000297B1F4C636D10521F48AE391E061E08C
:101020000DC0C236D10521F48AE391E062E006C02A
:10103000C237D10529F48AE391E064E00E94840379
:1010400080910201909103010397B1F4C636D10556
:1010500021F48CE391E061E00DC0C236D10521F4AA
:101060008CE391E062E006C0C237D10529F48CE33D
:1010700091E064E00E948403809102019091030159
:10108000049709F0B7C0C636D10521F48EE391E08C
:1010900061E00EC0C236D10521F48EE391E062E03A
:1010A00007C0C237D10509F0A5C08EE391E064E026
:1010B0000E9484039FC0CE01C197029708F09AC096
:1010C000E097D0930101C09300018FEB90E094C0B2
:1010D0008091000190910101019729F482E291E051
:1010E000BE010E94A600809100019091010102972B
:1010F00009F080C08DE291E0BE010E94A6007AC096
:10110000CE01C197029708F075C0E097D093010116
:10111000C093000189EC90E06FC0C636D10541F064
:10112000C237D10589F0C236D10509F063C003C0CA
:1011300081E090E002C082E090E0909343018093D0
:1011400042018AEC90E058C0809100019091010129
:10115000019721F482E291E00E946A0380910001EC
:1011600090910101029709F045C08DE291E00E9443
:101170006A0340C0C936D10599F0CA36D10524F4B6
:10118000C436D105B9F509C0CD36D10561F0C337F4
:10119000D10581F581E090E008C082E090E005C0D3
:1011A00083E090E002C088E090E09093410180935A
:1011B00040018BEC90E020C08091000190910101F2
:1011C000019749F482E291E0BE01409142012091F1
:1011D00040010E94AD0280910001909101010297AF
:1011E00049F48DE291E0BE0140914201209140011D
:1011F0000E94AD028FEF9FEF909309018093080149
:10120000DF91CF91089581ED91E040E855E260E0F3
:1012100070E00E942F0B08950E9485090E94030927
:101220000E94D005FDCF1F920F920FB60F9211248E
:101230002F933F938F939F93AF93BF9380914801D8
:1012400090914901A0914A01B0914B0130914C011C
:101250000196A11DB11D232F2D5F2D3720F02D5795
:101260000196A11DB11D20934C01809348019093DC
:101270004901A0934A01B0934B01809144019091A0
:101280004501A0914601B09147010196A11DB11DF4
:101290008093440190934501A0934601B093470188
:1012A000BF91AF919F918F913F912F910F900FBE62
:1012B0000F901F901895EF92FF920F931F937B0151
:1012C0008C018FB7F8944091480150914901609189
:1012D0004A0170914B018FBF2FB7F894809148015C
:1012E00090914901A0914A01B0914B012FBF841BFD
:1012F000950BA60BB70BE816F9060A071B0760F754
:101300001F910F91FF90EF900895789484B58260BB
:1013100084BD84B5816084BD85B5826085BD85B599
:10132000816085BDEEE6F0E0808181608083E1E848
:10133000F0E0808182608083808181608083E0E84A
:10134000F0E0808181608083E1EBF0E08081846067
:101350008083E0EBF0E0808181608083EAE7F0E069
:1013600080818460808380818260808380818160CD
:1013700080838081806880831092C10008958F707F
:1013800090910A019295990F990F907C982B9093C8
:101390007C0080917A00806480937A0080917A004A
:1013A00086FDFCCF2091780040917900942F80E059
:1013B00030E0282B392BC90108951F93CF93DF9379
:1013C000182FEB0161E00E94360AE12FF0E0E255B0
:1013D000FF4F8491833051F4809180008068809326
:1013E0008000D0938900C09388003CC0843051F4C1
:1013F00080918000806280938000D0938B00C093A6
:101400008A0030C0813039F4209729F184B5806892
:1014100084BDC7BD27C0823039F42097E1F084B580
:10142000806284BDC8BD1EC0863041F48091B0008A
:1014300080688093B000C093B30014C0873041F43B
:101440008091B00080628093B000C093B4000AC065
:10145000C038D1051CF4812F60E002C0812F61E00B
:101460000E94560ADF91CF911F910895282F30E0F6
:10147000C90186569F4FFC0194912A573F4FF901AD
:101480008491882391F0E82FF0E0EE0FFF1FE859D8
:10149000FF4FA591B491662329F48C9190958923EF
:1014A0008C9308958C91892B8C930895482F50E04C
:1014B000CA0182559F4FFC012491CA0186569F4F55
:1014C000FC0194914A575F4FFA0134913323D1F1D3
:1014D000222331F1233021F4809180008F7705C0E1
:1014E000243031F4809180008F7D8093800018C07B
:1014F000213019F484B58F7704C0223021F484B5EB
:101500008F7D84BD0DC0263021F48091B0008F778F
:1015100005C0273029F48091B0008F7D8093B00002
:10152000E32FF0E0EE0FFF1FEE58FF4FA591B491AF
:10153000662329F48C91909589238C9308958C913E
:10154000892B8C930895682F70E0CB0182559F4FB3
:10155000FC012491CB0186569F4FFC0144916A57B0
:101560007F4FFB019491992319F420E030E038C0BB
:10157000222331F1233021F4809180008F7705C040
:10158000243031F4809180008F7D8093800018C0DA
:10159000213019F484B58F7704C0223021F484B54A
:1015A0008F7D84BD0DC0263021F48091B0008F77EF
:1015B00005C0273029F48091B0008F7D8093B00062
:1015C000892F90E0880F991F84589F4FFC01A591A7
:1015D000B4918C9120E030E0842311F021E030E0E0
:1015E000C90108951F920F920FB60F9211242F93E5
:1015F0003F934F935F936F937F938F939F93AF939B
:10160000BF93EF93FF934091C600E091CD01F0911D
:10161000CE01CF01019660E870E00E94F90D9C01B7
:101620008091CF019091D0012817390739F0E35B01
:10163000FE4F40833093CE012093CD01FF91EF9177
:10164000BF91AF919F918F917F916F915F914F91DA
:101650003F912F910F900FBE0F901F9018955F92A2
:101660006F927F928F929F92AF92BF92CF92DF92B2
:10167000EF92FF920F931F93CF93DF93EC013A0108
:101680004B01413482E458078FE0680780E0780717
:101690000CF07FC060E874E88EE190E0A401930153
:1016A0000E942E0E2150304040405040CA01B901E6
:1016B00022E030E040E050E00E942E0E59016A0125
:1016C000A6019501209530954095509594E0220F04
:1016D000331F441F551F9A95D1F760E074E284EFE1
:1016E00090E00E942E0ECA01B9012FEF30E040E0D9
:1016F00050E00E94CE0DA40193010E942E0EC9015C
:1017000081509F4F181619061CF4522E5A9403C08C
:1017100055245394521A60E079E08DE390E0A401DF
:1017200093010E942E0E2150304040405040CA018B
:10173000B90122E030E040E050E00E942E0E2095FA
:1017400030954095509583E0220F331F441F551F5D
:101750008A95D1F760E074E284EF90E00E942E0E4B
:10176000CA01B9012FEF30E040E050E00E94CE0DF9
:10177000A40193010E942E0EC90181509F4F18169B
:1017800019061CF4822F815002C081E0821B85154E
:1017900000F5E885F98581E090E00A8802C0880FAD
:1017A000991F0A94E2F7808360E079E08DE390E08E
:1017B000A40193010E942E0E215030404040504021
:1017C000CA01B90122E030E040E050E00E942E0E54
:1017D00004C0E885F98510829501EC81FD81308394
:1017E000EE81FF812083EA85FB85208141E050E086
:1017F000CA010E8402C0880F991F0A94E2F7282BB1
:101800002083EA85FB852081CA010F8402C0880FEE
:10181000991F0A94E2F7282B2083EA85FB858081B3
:10182000088802C0440F551F0A94E2F7842B808376
:10183000DF91CF911F910F91FF90EF90DF90CF90AC
:10184000BF90AF909F908F907F906F905F90089522
:10185000DC011296ED91FC911397E058FF4F8191B6
:10186000919180589F4F20813181821B930B60E8BA
:1018700070E00E94F90D0895CF93DF93DC0112967A
:10188000ED91FC911397EF01CE57DF4F48815981BD
:10189000E058FF4F80819181E058F0408417950710
:1018A00019F42FEF3FEF0CC0E40FF51F2081CA01A0
:1018B000019660E870E00E94F90D9983888330E01A
:1018C000C901DF91CF910895FC01A085B1852189DF
:1018D0008C9190E0022E02C0959587950A94E2F7CC
:1018E00080FFF6CF0484F585E02D608308958FE0B6
:1018F00091E09093D2018093D1018DE491E0909397
:10190000D4018093D30185EC90E09093D60180932D
:10191000D50184EC90E09093D8018093D70180ECBE
:1019200090E09093DA018093D90181EC90E090935C
:10193000DC018093DB0186EC90E09093DE018093E4
:10194000DD0184E08093DF0183E08093E00187E0A4
:101950008093E10185E08093E20181E08093E301DF
:1019600008950F931F93CF93DF938C01EB0109C070
:101970002196D801ED91FC910190F081E02DC801F4
:10198000099568816623A1F7DF91CF911F910F918F
:101990000895EF92FF920F931F93CF93DF938C01E3
:1019A0007B01EA010CC0D7016D917D01D801ED9159
:1019B000FC910190F081E02DC801099521972097B5
:1019C00091F7DF91CF911F910F91FF90EF900895C4
:1019D0000F931F938C01DC01ED91FC910190F0813C
:1019E000E02D6DE00995D801ED91FC910190F08119
:1019F000E02DC8016AE009951F910F9108952F927B
:101A00003F924F925F926F927F928F929F92AF928E
:101A1000BF92CF92DF92EF92FF920F931F93DF93CB
:101A2000CF93CDB7DEB7A0970FB6F894DEBF0FBE49
:101A3000CDBF1C016A017B0141155105610571058E
:101A400049F4DC01ED91FC910190F081E02D60E31F
:101A5000099554C0882499245401422E55246624A3
:101A6000772401E010E00C0F1D1F080D191DC701A0
:101A7000B601A30192010E940C0EF8016083089444
:101A8000811C911CA11CB11CC701B601A3019201CC
:101A90000E940C0EC901DA016C017D01C114D10450
:101AA000E104F104F1F681E0E82EF12CEC0EFD1ECC
:101AB000E80CF91C3E010894611C711CD501C4019D
:101AC0000197A109B1096C01C818D90814C0F60121
:101AD000EE0DFF1D60816A3010F4605D01C0695C2D
:101AE000D101ED91FC910190F081E02DC1010995AA
:101AF0000894E108F1086E147F0449F7A0960FB628
:101B0000F894DEBF0FBECDBFCF91DF911F910F9133
:101B1000FF90EF90DF90CF90BF90AF909F908F900D
:101B20007F906F905F904F903F902F900895EF922D
:101B3000FF920F931F93CF93DF93EC017A018B01F8
:101B400077FF0FC0E881F9810190F081E02D6DE20F
:101B5000099510950095F094E094E11CF11C011D8D
:101B6000111DCE01B801A7012AE00E94FF0CDF91F0
:101B7000CF911F910F91FF90EF9008950F931F93B6
:101B80008C01AB01662757FD6095762F0E94970D5B
:101B9000C8010E94E80C1F910F910895629FD00127
:101BA000739FF001829FE00DF11D649FE00DF11D18
:101BB000929FF00D839FF00D749FF00D659FF00DC7
:101BC0009927729FB00DE11DF91F639FB00DE11DB4
:101BD000F91FBD01CF0111240895991B79E004C0BC
:101BE000991F961708F0961B881F7A95C9F780955C
:101BF000089597FB092E07260AD077FD04D049D017
:101C000006D000201AF4709561957F4F0895F6F77D
:101C1000909581959F4F0895A1E21A2EAA1BBB1B98
:101C2000FD010DC0AA1FBB1FEE1FFF1FA217B307A8
:101C3000E407F50720F0A21BB30BE40BF50B661FBE
:101C4000771F881F991F1A9469F760957095809582
:101C500090959B01AC01BD01CF01089597FB092E22
:101C600005260ED057FD04D0D7DF0AD0001C38F46B
:101C700050954095309521953F4F4F4F5F4F0895B8
:101C8000F6F790958095709561957F4F8F4F9F4F98
:101C90000895AA1BBB1B51E107C0AA1FBB1FA617B3
:101CA000B70710F0A61BB70B881F991F5A95A9F705
:101CB00080959095BC01CD010895EE0FFF1F059012
:0A1CC000F491E02D0994F894FFCF91
:101CCA000200040002000D00FFFF01000000006492
:061CDA000CB10CC90C0066
:00000001FF
