:100000000C9462000C948A000C948A000C948A0070
:100010000C948A000C948A000C948A000C948A0038
:100020000C948A000C948A000C948A000C948A0028
:100030000C948A000C948A000C948A000C948A0018
:100040000C9481010C948A000C9436030C948A0061
:100050000C948A000C948A000C948A000C948A00F8
:100060000C948A000C948A000000000024002700F1
:100070002A0000000000250028002B0000000000DE
:1000800023002600290004040404040404040202DA
:100090000202020203030303030301020408102007
:1000A0004080010204081020010204081020000012
:1000B0000007000201000003040600000000000029
:1000C0000000BB0411241FBECFEFD8E0DEBFCDBFC0
:1000D00011E0A0E0B1E0EAE3FDE002C005900D927E
:1000E000A031B107D9F711E0A0E1B1E001C01D9244
:1000F000A03BB107E1F710E0C4ECD0E004C02297C8
:10010000FE010E949706C23CD107C9F70E947A01FE
:100110000C949B060C9400008DE991E00E946C0405
:10012000882309F4CFC08DE991E00E948004BC01CE
:1001300080910201909103018431910509F470C00E
:100140008531910594F40097D1F1181619062CF019
:100150008F5F9F4F09F0B6C020C08130910509F430
:100160003DC00A9709F0AEC04BC08832910509F432
:1001700081C08932910544F48531910509F45EC04E
:100180004E9709F09FC064C08932910509F480C080
:100190008A35910509F096C086C0CB01C0970A97B1
:1001A00008F090C0CB0133E0880F991F3A95E1F732
:1001B000660F771F860F971F805E91406FC0CB013F
:1001C00083569040429708F067C061567040709324
:1001D00001016093000181E090E060C0CB01C09715
:1001E000029708F059C06033710521F48091000135
:1001F00060E003C08091000161E00E947A024CC07F
:10020000CB0183569040429708F046C0CB018156FF
:10021000904090930101809300010E94E70224C066
:10022000CB01835690404297B8F561567040709369
:1002300001016093000185E190E030C0605370409F
:100240006230710548F5809100010E949A0224C035
:100250006156704066307105F8F470930101609347
:100260000001862F0E940302BC018DE991E00E94EB
:10027000020612C0CB0183569040429768F4615643
:100280007040709301016093000189E290E006C024
:10029000809100010E9421028FEF9FEF9093030154
:1002A0008093020108956933710531F48DE991E07D
:1002B00061E070E00E9402068FEF9FEF90930301D0
:1002C0008093020108951F9310E0812F60E00E9447
:1002D0007A02812F60E00E949A021F5F1431A9F711
:1002E0008DE991E040E855E260E070E00E94730320
:1002F0001F9108950E94C9010E9463010E948C0011
:10030000FDCF1F920F920FB60F9211242F933F93A0
:100310008F939F93AF93BF93809114019091150198
:10032000A0911601B0911701309118010196A11DFD
:10033000B11D232F2D5F2D3720F02D570196A11DC4
:10034000B11D209318018093140190931501A0937F
:100350001601B09317018091100190911101A091A5
:100360001201B09113010196A11DB11D80931001DE
:1003700090931101A0931201B0931301BF91AF911B
:100380009F918F913F912F910F900FBE0F901F90D3
:100390001895789484B5826084BD84B5816084BDED
:1003A00085B5826085BD85B5816085BDEEE6F0E0EE
:1003B000808181608083E1E8F0E0808182608083D9
:1003C000808181608083E0E8F0E0808181608083CB
:1003D000E1EBF0E0808184608083E0EBF0E08081FD
:1003E00081608083EAE7F0E080818460808380819F
:1003F0008260808380818160808380818068808347
:100400001092C10008958F70909104019295990FF8
:10041000990F907C982B90937C0080917A00806457
:1004200080937A0080917A0086FDFCCF209178003D
:1004300040917900942F80E030E0282B392BC901BE
:1004400008951F93CF93DF93182FEB0161E00E9473
:100450007A02E12FF0E0E255FF4F8491833051F4AE
:1004600080918000806880938000D0938900C09341
:1004700088003CC0843051F4809180008062809379
:100480008000D0938B00C0938A0030C0813039F453
:10049000209729F184B5806884BDC7BD27C082300C
:1004A00039F42097E1F084B5806284BDC8BD1EC0D8
:1004B000863041F48091B00080688093B000C09392
:1004C000B30014C0873041F48091B0008062809303
:1004D000B000C093B4000AC0C038D1051CF4812F0D
:1004E00060E002C0812F61E00E949A02DF91CF910B
:1004F0001F910895282F30E0C90186569F4FFC01B7
:1005000094912A573F4FF9018491882391F0E82F65
:10051000F0E0EE0FFF1FE859FF4FA591B49166235D
:1005200029F48C91909589238C9308958C91892B33
:100530008C930895482F50E0CA0182559F4FFC01CB
:100540002491CA0186569F4FFC0194914A575F4FF0
:10055000FA0134913323D1F1222331F1233021F4F4
:10056000809180008F7705C0243031F48091800025
:100570008F7D8093800018C0213019F484B58F7767
:1005800004C0223021F484B58F7D84BD0DC0263097
:1005900021F48091B0008F7705C0273029F4809135
:1005A000B0008F7D8093B000E32FF0E0EE0FFF1FCF
:1005B000EE58FF4FA591B491662329F48C91909544
:1005C00089238C9308958C91892B8C930895682F9F
:1005D00070E0CB0182559F4FFC012491CB018656E0
:1005E0009F4FFC0144916A577F4FFB0194919923DF
:1005F00019F420E030E038C0222331F1233021F417
:10060000809180008F7705C0243031F48091800084
:100610008F7D8093800018C0213019F484B58F77C6
:1006200004C0223021F484B58F7D84BD0DC02630F6
:1006300021F48091B0008F7705C0273029F4809194
:10064000B0008F7D8093B000892F90E0880F991FB4
:1006500084589F4FFC01A591B4918C9120E030E02B
:10066000842311F021E030E0C90108951F920F9218
:100670000FB60F9211242F933F934F935F936F9375
:100680007F938F939F93AF93BF93EF93FF9340918B
:10069000C600E0919901F0919A01CF01019660E8BE
:1006A00070E00E9431069C0180919B0190919C0119
:1006B0002817390739F0E75EFE4F408330939A01DF
:1006C00020939901FF91EF91BF91AF919F918F91ED
:1006D0007F916F915F914F913F912F910F900FBE3E
:1006E0000F901F9018955F926F927F928F929F92BA
:1006F000AF92BF92CF92DF92EF92FF920F931F9330
:10070000CF93DF93EC013A014B01413482E4580767
:100710008FE0680780E078070CF07FC060E874E83D
:100720008EE190E0A40193010E94660621503040C2
:1007300040405040CA01B90122E030E040E050E0C2
:100740000E94660659016A01A6019501209530951F
:100750004095509594E0220F331F441F551F9A95E2
:10076000D1F760E074E284EF90E00E946606CA016F
:10077000B9012FEF30E040E050E00E941206A401E2
:1007800093010E946606C90181509F4F18161906F1
:100790001CF4522E5A9403C055245394521A60E00C
:1007A00079E08DE390E0A40193010E946606215058
:1007B000304040405040CA01B90122E030E040E002
:1007C00050E00E946606209530954095509583E054
:1007D000220F331F441F551F8A95D1F760E074E242
:1007E00084EF90E00E946606CA01B9012FEF30E065
:1007F00040E050E00E941206A40193010E946606A8
:10080000C90181509F4F181619061CF4822F815080
:1008100002C081E0821B851500F5E885F98581E03D
:1008200090E00A8802C0880F991F0A94E2F780833B
:1008300060E079E08DE390E0A40193010E946606F8
:100840002150304040405040CA01B90122E030E020
:1008500040E050E00E94660604C0E885F9851082F9
:100860009501EC81FD813083EE81FF812083EA8553
:10087000FB85208141E050E0CA010E8402C0880F50
:10088000991F0A94E2F7282B2083EA85FB852081B3
:10089000CA010F8402C0880F991F0A94E2F7282B1F
:1008A0002083EA85FB858081088802C0440F551F9C
:1008B0000A94E2F7842B8083DF91CF911F910F91EF
:1008C000FF90EF90DF90CF90BF90AF909F908F9070
:1008D0007F906F905F900895DC011296ED91FC91EE
:1008E0001397E058FF4F8191919180589F4F20813D
:1008F0003181821B930B60E870E00E9431060895FD
:10090000CF93DF93DC011296ED91FC911397EF01E9
:10091000CE57DF4F48815981E058FF4F8081918148
:10092000E058F0408417950719F42FEF3FEF0CC003
:10093000E40FF51F2081CA01019660E870E00E9473
:1009400031069983888330E0C901DF91CF91089502
:10095000FC01A085B18521898C9190E0022E02C016
:10096000959587950A94E2F780FFF6CF0484F58584
:10097000E02D6083089589E091E090939E0180933B
:100980009D0189E191E09093A00180939F0185EC06
:1009900090E09093A2018093A10184EC90E0909369
:1009A000A4018093A30180EC90E09093A601809332
:1009B000A50181EC90E09093A8018093A70186ECBB
:1009C00090E09093AA018093A90184E08093AB0109
:1009D00083E08093AC0187E08093AD0185E0809354
:1009E000AE0181E08093AF0108950F931F93CF93E1
:1009F000DF938C01EB0109C02196D801ED91FC91A8
:100A00000190F081E02DC801099568816623A1F766
:100A1000DF91CF911F910F910895EF92FF920F9365
:100A20001F93CF93DF938C017B01EA010CC0D701A8
:100A30006D917D01D801ED91FC910190F081E02D47
:100A4000C80109952197209791F7DF91CF911F91C8
:100A50000F91FF90EF9008950F931F938C01DC018D
:100A6000ED91FC910190F081E02D6DE00995D801A8
:100A7000ED91FC910190F081E02DC8016AE00995AB
:100A80001F910F9108952F923F924F925F926F9214
:100A90007F928F929F92AF92BF92CF92DF92EF920E
:100AA000FF920F931F93DF93CF93CDB7DEB7A0973D
:100AB0000FB6F894DEBF0FBECDBF1C016A017B01EB
:100AC000411551056105710549F4DC01ED91FC9179
:100AD0000190F081E02D60E3099554C088249924A9
:100AE0005401422E55246624772401E010E00C0FB7
:100AF0001D1F080D191DC701B601A30192010E9417
:100B00004406F80160830894811C911CA11CB11C4F
:100B1000C701B601A30192010E944406C901DA018E
:100B20006C017D01C114D104E104F104F1F681E00E
:100B3000E82EF12CEC0EFD1EE80CF91C3E01089489
:100B4000611C711CD501C4010197A109B1096C0197
:100B5000C818D90814C0F601EE0DFF1D60816A3077
:100B600010F4605D01C0695CD101ED91FC910190D0
:100B7000F081E02DC10109950894E108F1086E1497
:100B80007F0449F7A0960FB6F894DEBF0FBECDBF25
:100B9000CF91DF911F910F91FF90EF90DF90CF9059
:100BA000BF90AF909F908F907F906F905F904F908D
:100BB0003F902F900895EF92FF920F931F93CF9342
:100BC000DF93EC017A018B0177FF0FC0E881F98197
:100BD0000190F081E02D6DE2099510950095F0945B
:100BE000E094E11CF11C011D111DCE01B801A7010B
:100BF0002AE00E944305DF91CF911F910F91FF9052
:100C0000EF9008950F931F938C01AB01662757FD5A
:100C10006095762F0E94DB05C8010E942C051F916C
:100C20000F910895629FD001739FF001829FE00DA4
:100C3000F11D649FE00DF11D929FF00D839FF00D5B
:100C4000749FF00D659FF00D9927729FB00DE11D07
:100C5000F91F639FB00DE11DF91FBD01CF011124E4
:100C6000089597FB092E07260AD077FD04D049D0B6
:100C700006D000201AF4709561957F4F0895F6F71D
:100C8000909581959F4F0895A1E21A2EAA1BBB1B38
:100C9000FD010DC0AA1FBB1FEE1FFF1FA217B30748
:100CA000E407F50720F0A21BB30BE40BF50B661F5E
:100CB000771F881F991F1A9469F760957095809522
:100CC00090959B01AC01BD01CF01089597FB092EC2
:100CD00005260ED057FD04D0D7DF0AD0001C38F40B
:100CE00050954095309521953F4F4F4F5F4F089558
:100CF000F6F790958095709561957F4F8F4F9F4F38
:100D00000895AA1BBB1B51E107C0AA1FBB1FA61752
:100D1000B70710F0A61BB70B881F991F5A95A9F7A4
:100D200080959095BC01CD010895EE0FFF1F0590B1
:0A0D3000F491E02D0994F894FFCF30
:100D3A000D00FFFF0100000000A804F5040D0500E6
:00000001FF
